:02000000A82D29
:10000800FF00030E83018316A1000A08A0008A01DD
:1000180070088312A2007108A1008B1C2C284208CA
:10002800013EF00000300318013E4307F10070085C
:10003800C2007108C3003C08013EF00000300318FC
:10004800013E3D07F1007008BC007108BD008B102F
:100058000C1C3F28C00A0319C10A0C100B308F0072
:10006800DC308E0000304102031D3C280430400281
:10007800031C3F28C4152208F0002108F10083164C
:0E00880020088A00210E8300FF0E7F0E090063
:060096000000000008005C
:0E009C00213083120313FD00FD0B52280800D3
:1000AA000F3083120313FC004730FD00FD0B5B2861
:0A00BA00FC0B5B28000000000800AA
:1000C40083160313B61B6928831286126B288312C6
:1000D40086168316361B7128831206127328831220
:1000E40006168316B61A7928831286117B28831282
:1000F40086158316361A81288312061183288312E3
:1001040006154419872806178828061386174B20D6
:1001140086138316B61991288312861293288312A4
:100124008616831636199928831206129B28831281
:1001340006168316B618A12883128611A3288312E3
:10014400861583163618A92883120611AB28831244
:1001540006154419AF280617B028061386174B2036
:0E0164008613441DB7285520B8284E200800E9
:1001720083120313F801F9011030FC00710DF80D20
:10018200F90D7408F8027508031C750FF9020318BB
:10019200D1287408F80775080318750FF9070310BA
:0A01A200F00DF10DFC0BBF28080062
:0E01AC00F201F101F001F801F301003008004A
:0801BA00FA1FF21300300800E7
:1001C20083120313441183163108B60062204415CA
:0201D200080023
:1001D40083160313B401053034020318F8283408D5
:1001E4003307840020308000B40AED283408330734
:1001F40084008001B40334083307B5000A30F400E6
:10020400F5013108F0003208F100B9207808F00057
:100214007908F1003030F00783163508840070083F
:1002240080000A30F400F5013108F0003208F100D2
:10023400B92070088316B1007108B200003071064D
:10024400031D262900307006031D29292B29B40318
:04025400FD28080079
:10025800831603139818322900002C2931088312B9
:0402680099000800F1
:10026C007B15FB1F40290130F300F201F101F00175
:08027C00FA0DF20CFF3008003E
:1002840083160313AA01280884000008A90029087A
:10029400003A031958292908B1002C218316AA0A07
:0E02A4002A08280784000008A900492908003C
:1002B20083160313AD01AE012808AF002908B00070
:1002C20080302906F00080307002031D6A29003058
:1002D2002802031878290130AD000030AE0028084A
:1002E200003CAF002908031C013EB001B0022F08F8
:1002F200B1003008B2002A08B300EA200630AB0091
:100302000030AC002C08003C031D89292B08003C5E
:100312000318A4292B082A07F20001302B02F0004F
:100322000030031C013E2C02F10070082A078400F1
:100332000008F00072088400700880000130AB02EF
:10034200031CAC0383292A088400203080002D0876
:100352002E040319C229AB01AC012B082A07840021
:100362000008203A031DB929AB0A0319AC0AAE29C9
:100372000130AB02031CAC032B082A0784002D308A
:0403820080000800EF
:10038600D529803083160313A800E829C030A800B9
:10039600E8299430A800E829D430A800E82980305C
:1003A600A800E829831603132808013A0319C4296B
:1003B6002808023A0319C9292808033A0319CC293F
:1003C6002808043A0319CF29D2292903F00028085E
:1003D600F0077008A8007008B60062204411831662
:1003E600AB012B082A07840000080319032A2B08EF
:1003F6002A0784000008B100E1208316AB0AF4291D
:06040600831244150800FA
:0E040C008312031357088A0056088200080066
:10041A008316031386130613061186110612861213
:10042A0083128613061386120612861106115520A8
:10043A00552055208615061586174B2086135520FC
:10044A0086174B208613552086174B208613552076
:10045A00061186174B208613552086174B208613C4
:10046A008611861686174B20861355208612061586
:10047A0086174B208613061186174B2086135520A4
:10048A0086174B208613061586174B208613552090
:10049A00061186174B20861386160616861506152C
:0C04AA0086174B208613552044150800CF
:1004B6000E3083120313FD00FD0B5F2A00000800B7
:1004C600A0017208031D782A7108F2007008F10075
:1004D600F001A0157208031D782A7108F200F101D7
:1004E600A011201672080319862A2008F302031D9C
:1004F600031C8A2A0310F21B8E2AF00DF10DF20D51
:10050600F30B7E2A8A2A0130FC00D620912A02307B
:0E051600FC003621912A0430FC00DD20080094
:06052400FB15FF3008008A
:10052A007B14FB1FA02AF201FA1FFF30F200F10030
:0A053A00F000FA0DF20CFF3008008B
:1005440083120313FB01FA01F9018030F800F10C66
:10055400F00C031CB62A7408F90775080318750F04
:10056400FA070318FB0A0310F01FBE2A7408FA07DF
:1005740075080318750FFB07FB0CFA0CF90CF80C43
:10058400031CA92A7B08F3007A08F2007908F10019
:060594007808F0000800E9
:10059A00FB14FB1FD72AFF30F300F200F100F00032
:0805AA00FA0DF20CFF3008000D
:1005B20083120313FB01FC01FA0173080319182BC0
:1005C200F2178E30F302F31BE92A0319E92A1B2BD7
:1005D200F309F30A08307302031CFE2AF300F10D3B
:1005E2007208F100F20108307302031CFE2AF10DB9
:1005F200F1017308031D0310062B73080319062B60
:100602000310F20CF10CF30B012B7B1B711C102B52
:10061200031C102BF10A0319F20AF21B272BFA1FF3
:100622002A2BF209F109F10A0319F20A2A2BF20123
:10063200F1012A2B7B14FB1F2D2BF201FA1F2D2B0C
:10064200FF30F200F100FA0DF20C2D2B0130FC000C
:100652002F2B0030FC002F2BFF30FC00FC0803196D
:0E066200332B95227108F0007208F100080099
:1006700083120313FB017308031D770803198F2BE3
:1006800072087606FA007708F3077E30031C4C2BBD
:10069000F3020318922B4F2BF302031C952B7208C5
:1006A000F8007108FC007008FD00F817F617031039
:1006B000F201F101F0011830A0007D1C692B7408D3
:1006C000F00775080318750FF10776080318760F01
:1006D000F207F20CF10CF00CF80CFC0CFD0C031002
:1006E000A00B5D2BF21B792BF80DF00DF10DF20D27
:1006F000F3037B1B701C8B2BF81F8B2BF00A031949
:10070000F10A0319F20A031D8B2BF20CF10CF00C09
:10071000F30A0319922BFA1FF2130030972B0130C2
:10072000D620972B0230CD22972B043036210000A3
:020730000800BF
:0E0732000030831203138C1A0130F00008000F
:10074000831603131208013EF000F1010318F10AA9
:100750002208F400F501A2220630F2007008F4002D
:100760007108F50072080319BA2BF50CF40CF51397
:10077000FF3EB32B0430F1007408F0007108031938
:10078000C52BF00D7010FF3EBF2B30307005F3000D
:100790007408F0007508F100F10CF00CF113F10C85
:1007A000F00CF113700895000F309705730897044B
:0207B00008003F
:1007B200831203131A08F100981CE12B1812181661
:0607C2007108F0000800C0
:1007C800831603132208A8002308A9004C30AA00A6
:1007D80059210130A8000130A9002430AA00C32102
:1007E80001308316A8000630A9004C30AA00C321A6
:0207F8000800F7
:1007FA00831203137008F8007108F000F101F20186
:10080A00F301FB01FC019630F300FA017008F100D4
:0C081A007808F000F801F20163220800E9
:10082600143083120313F4000030F50083162208F7
:10083600F0002308F100B92070088316A80071089B
:10084600A9005830AA0059210230A8000130A90099
:100856002A30AA00C32102308316A8000630A90058
:080866005830AA00C32108006C
:10086E00831203137408003A031D522C7508003AC4
:10087E00031D522C7608003A031D522C7708003ABD
:10088E00031D522CFF30F000FF30F1007F30F200DC
:10089E00FF30F300ED2C8312031377080319E12CBC
:1008AE0073080319E42C720876068039FA00F217E1
:1008BE00F617A0017208F8007108FC007008FD0020
:1008CE007408FD027508031C750FFC027608031CE4
:1008DE00760FF802F801FC01FD01031C7D2C0310BC
:1008EE00F20CF10CF00CF80C0130A0007708F302BA
:1008FE00031C872C7E302007F3070318E72C8C2C63
:10090E007E302007F307031CEA2C1830FA07FD0D82
:10091E00FC0DF80DF00DF10DF20DA00D7408F002A6
:10092E007508031C750FF1027608031C760FF20290
:10093E00760DA004201CA52C7D14B02C7408F00795
:10094E0075080318750FF10776080318760AF20773
:10095E007D10FA031F307A05031D8E2C7B1B7D1C28
:10096E00D72C0310F00DF10DF20DA00D7408F0024E
:10097E007508031C750FF1027608031C760FF20240
:10098E00760D20040139FD070318FC0A0319F80A35
:10099E00031DD72CF80CFC0CFD0CF30A0319E72CE5
:1009AE00FA1FF8137808F2007C08F1007D08F000B9
:1009BE000030EC2C01309222EC2C0230D620EC2CA4
:0E09CE000430CD22EC2C083036210000080049
:1009DC00831603139816903083129800831687178A
:1009EC00071383128C1EFD2C1A08F000F72C08003C
:1009FC000D2201308316B60062200C308316B6002F
:040A0C00622008005C
:100A1000831603130711831212150C309704080074
:100A2000831203139F01C0309F043909F00070083E
:100A300083169F051F179F172208F000F00D7010F6
:100A4000F00D7010F00D7010700883129F041F14C9
:100A50005B221F151F1D2E2D00002A2D1F101E08A2
:100A6000F100F00183161E08F0040030F1040800C4
:0C0A70008312031395011712971208005F
:100A7C00FF3083120313E200FF30E300FF30E40089
:100A8C00FF309F01C0309F043909F00070088316B5
:0C0A9C009F051F179F1783121F140800EE
:100AA80006228A110A128000840AD60A0319D70A74
:080AB800F003031D542D08009A
:100AC000831603132208A8002308A9004C30AA00AB
:100AD00059211430F4000030F5002408F0002508F6
:100AE000F100B92070088316A8007108A9005830D9
:100AF000AA0059212608F0002708F1006430F4000C
:100B00000030F500A222FF30F400F501B920700892
:100B10008316A8007108A9006630AA0059214C303C
:100B2000A80042213A30A80042215830A8004221B2
:100B30003530A80042216630A80042213330A80099
:100B400042213130A80042213730A800422108005C
:100B5000EE268316031387018801081588150614ED
:100B60008B170B170B168B10011731308312900067
:100B70000B308F00DC308E0083160C14FE243E25D3
:100B8000121492147C3083169200382508253330D5
:100B9000831699001815EE240230FB000430FC0087
:100BA000BA30FD00FD0BD22DFC0BD22DFB0BD22D4C
:100BB000000044108711081083124418062E831673
:100BC000A2011025FD237008C5007108C600720837
:100BD000C7007308C8000030F4000030F5007F3013
:100BE000F6008630F70038230030F400C030F500FE
:100BF0007F30F6008830F7003724D9227008CA0009
:100C00007108CB0070088316A200A02300300819D9
:100C10000130C9004908013A031D1D2E2308003A7E
:100C2000031D1D2E081D1D2E0230C406C41C1B2EC4
:100C3000871508101D2E871108104908A300881D6C
:100C4000232EBC01BD01992370080319852E981C21
:100C50002B2E18121816D9237008E5006C2EC41C10
:100C6000342E8711C410362E8715C414852EBC016E
:100C7000BD01852E4414852E4410852E441C542E0F
:100C80004B08003C031D462E4A08F53C031C4D2E24
:100C90000A30CA070318CB0A502EFF30CA00CB0116
:100CA0004A088316A200A023852E441C6A2E003019
:100CB0004B02031D5D2E0A304A02031C642E0A30CB
:100CC000CA02031CCB03662ECA01CB014A08831655
:100CD000A200A023852E852E65084F3A03192F2EDA
:100CE0006508523A0319372E6508453A03193A2E1A
:100CF0006508503A03193C2E65082B3A03193E2E1D
:100D000065082D3A0319552E6B2EC41D9E2E4208E0
:100D1000F0004308F1003C30F4000030F500A2225E
:100D20001430F4000030F500B9207008BE007108DE
:100D3000BF00C201C301C001C101C4113E08831636
:100D4000A20083123F088316A300E4233C08831605
:100D5000A20083123D088316A30013243E088316C5
:100D6000A20083123F088316A30083123C08831657
:100D7000A40083123D088316A50083124A08831637
:100D8000A60083124B088316A7006025DC2DC72E12
:100DDC0023308400213083120313F000CD30D60071
:080DEC000630D7005425080071
:020D9A00003423
:0C0D9C00523450344D343A3420340034CA
:0E0DA8005234453456344F343A34203400343B
:040DB6007C34003455
:040DBA0025340034A8
:040DBE007C3400344D
:040DC2000A340034BB
:020DC6000F34E8
:040DC8007C34003443
:040DCC0000340034BB
:040DD00000340034B7
:040DD40000340034B3
:040DD80000340034AF
:02400E004A2F37
:00000001FF
